S01400004469676974616C436C6F636B2E7372656366
S11300000C9499000C94B6000C94B6000C942D0337
S11300100C94B6000C94B6000C94B6000C94B60084
S11300200C94B6000C94B6000C94B6000C94B60074
S11300300C94B6000C94B6000C94B6000C94B60064
S11300400C94B6000C94B6000C94F3020C94B60015
S11300500C94B6000C94B6000C94B6000C94B60044
S11300600C94070A0C94B600B303B703BB03BF0395
S1130070C303C703CB03CF03D303D703120416046C
S11300801A041E04220426042A042E04320436040C
S1130090220A6E0A6E0A6E0A6E0A6E0A6E0A6E0AE8
S11300A0220A6E0A6E0A6E0A6E0A6E0A6E0A6E0AD8
S11300B0240A6E0A6E0A6E0A6E0A6E0A6E0A6E0AC6
S11300C06E0A6E0A6E0A6E0A6E0A6E0A6E0A6E0A6C
S11300D0240A6E0A6E0A6E0A6E0A6E0A6E0A6E0AA6
S11300E06E0A6E0A6E0A6E0A6E0A6E0A6E0A6E0A4C
S11300F06A0A6E0A6E0A6E0A6E0A6E0A6E0A6E0A40
S11301003F0A6E0A6E0A6E0A6E0A6E0A6E0A6E0A5A
S11301106E0A6E0A6E0A6E0A6E0A6E0A6E0A6E0A1B
S11301203F0A6E0A6E0A6E0A6E0A6E0A6E0A6E0A3A
S11301305B0A11241FBECFEFD8E0DEBFCDBF12E0B3
S1130140A0E0B1E0E4E1F5E102C005900D92A23037
S1130150B107D9F722E0A2E0B2E001C01D92A335B5
S1130160B207E1F70E94B5080C94880A0C940000C9
S11301702298109202020895CF93DF930E9488057B
S11301801A992BC040E051E061E083E00E94C2056F
S113019028E040EC6AEA71E080E00E949905C3E03F
S11301A0DFE04BE051E062E08C2F0E94C2054DE09D
S11301B051E062E08D2F8C1B0E94C2052FEF83EC6F
S11301C099E0215080409040E1F700C00000CF5FEB
S11301D0C83039F7109202022DC01A9B2BC08091AF
S11301E00202811127C04FE051E061E083E00E94E8
S11301F0C20549E151E062E087E00E94C2054BE19B
S113020051E062E089E00E94C20528E040EC6AEA1D
S113021071E080E00E94990581E0809302022FEF53
S11302208DE399E4215080409040E1F700C0000044
S11302300E948805DF91CF910895DF92EF92FF929B
S11302400F931F93CF93DF9300D0CDB7DEB70E94F7
S113025088054DE151E061E080E00E94C20549E17A
S113026051E061E08DE00E94C2054BE151E061E0A4
S11302708FE00E94C2052EE040E86AEA71E080E067
S11302800E94990543E251E062E080E00E94C205C9
S113029010E00F2EF6EFEF2EF02DF12CDD24DA9482
S11302A058C00E94D602882389F091E0910FE1E0C2
S11302B0F0E0EC0FFD1FE10FF11D8083EFE1FEE4A0
S11302C03197F1F700C00000192F43C0123008F431
S11302D040C061E085E00E947D051981812F0E9464
S11302E04A050A81802F0E944A0510531A3008F0EB
S11302F0D6C0110F812F880F880F180F80ED800F43
S11303008A3008F08D2D810F883100F145E351E0EA
S113031061E085E00E94C205FFEF2BE48DE1F1501E
S113032020408040E1F700C0000043E851E061E074
S113033085E00E94C2059FEFEBE4FDE19150E040AF
S1130340F040E1F700C000001F2D03C080931E029F
S11303501F2D4B990AC080912D0281111CC08091E0
S11303600602882309F49DCF16C080912D028111C5
S113037012C08091060281110EC04BE351E061E08E
S11303800E94C2052FEF83EC99E0215080409040F9
S1130390E1F700C000000F2EF6EFEF2EF02DF12C48
S11303A0DD24DA9458C00E94D602882389F091E0B3
S11303B0910FE1E0F0E0EC0FFD1FE10FF11D8083F0
S11303C0EFE1FEE43197F1F700C00000192F43C0BC
S11303D0123008F440C061E085E00E947D05198177
S11303E0812F0E944A050A81802F0E944A051053DA
S11303F01A3008F05BC0110F812F880F880F180F77
S113040080ED800F8A3008F08D2D810F8C3300F140
S113041043E451E061E085E00E94C205FFEF2BE474
S11304208DE1F15020408040E1F700C0000043E836
S113043051E061E085E00E94C2059FEFEBE4FDE13D
S11304409150E040F040E1F700C000001F2D03C0D0
S113045080932E021F2D4B990AC080912D02811189
S11304601BC080910602882309F49DCF15C080919A
S11304702D02811111C08091060281110DC040919D
S11304801E0260912E020E941B0910922B0281E031
S113049080932D02109206020E9488050EC080ED02
S11304A0800F8A3008F032CF1E2D2DCF80ED800FC3
S11304B08A3008F0ADCF1E2DA8CF0F900F90DF919A
S11304C0CF911F910F91FF90EF90DF900895CF93FC
S11304D0C82F49E451E061E080E00E94C20549E18F
S11304E051E061E08DE00E94C2054BE151E061E022
S11304F08FE00E94C2052EE040E86AEA71E080E0E5
S11305000E949905C1111FC041E551E062E080E0FD
S11305100E94C2052FEF89E698E121508040904067
S1130520E1F700C0000040E651E062E080E00E9494
S1130530C2052FEF89E698E1215080409040E1F711
S113054000C0000025C061E087E00E947D058C2F7B
S11305500E944A052FEF89E698E12150804090409F
S1130560E1F700C00000C053CA3070F4C13019F084
S1130570C23019F009C00E941D0110922B0281E0C3
S113058080932D02109206028FE691E00E9464058A
S1130590CF9108951092C50087E68093C40088E93E
S11305A08093C10086E08093C20008958091030285
S11305B08823B9F080910302882379F020E030E0A9
S11305C0F901E15EFD4F80812F5F3F4F40910302AF
S11305D050E024173507A4F301C080E01092030211
S11305E0089580E008951F920F920FB60F92112480
S11305F08F93EF93FF93E091030281E08E0F80933A
S11306000302F0E08091C600E15EFD4F8083FF911C
S1130610EF918F910F900FBE0F901F901895E8E601
S1130620F0E0808181608083EBE6F0E0808180618E
S113063080838081806280838081886080835398F6
S11306405B9881E0809351021092060280932D0200
S113065010922B021092080208951F920F920FB667
S11306600F9211242F933F934F935F936F937F9334
S11306708F939F93AF93BF93EF93FF93809108025F
S11306808F5F809308028823F1F11D9B13C0809132
S11306902D02811105C00E94880581E080935102DA
S11306A081E080932D021092060210922B02109288
S11306B0080229C01C9B13C080910602811105C049
S11306C00E94880581E08093510210922D0281E0FE
S11306D08093060210922B021092080214C01B9BF6
S11306E012C080912B02811105C00E94880581E00F
S11306F08093510210922D021092060281E08093A1
S11307002B0210920802FF91EF91BF91AF919F913C
S11307108F917F916F915F914F913F912F910F90A6
S11307200FBE0F901F901895813041F018F0823061
S113073049F00CC080E00E94A607089580E00E9462
S11307400C06089580E00E943806089580E00E9417
S1130750A607089590E08A30910568F5FC01EC5CE9
S1130760FF4F0C94820A84E00E94A607089584E057
S11307700E940C06089584E00E943806089584E0DF
S11307800E946E06089584E00E94A406089584E001
S11307900E94C606089584E00E94FC06089584E041
S11307A00E942F07089584E00E945107089584E071
S11307B00E948407089584E00E94A6070895823069
S11307C0A1F028F4882349F0813059F01EC0843008
S11307D0A1F078F08530A9F018C088E00E94A6073F
S11307E0089588E00E940C06089588E00E94380667
S11307F0089588E00E946E06089588E00E94A40689
S1130800089588E00E94C606089588E00E94A6071D
S1130810089590E08A30910568F5FC01E25CFF4F91
S11308200C94820A8CE00E94A60708958CE00E9432
S11308300C0608958CE00E94380608958CE00E940E
S11308406E0608958CE00E94A40608958CE00E9430
S1130850C60608958CE00E94FC0608958CE00E9470
S11308602F0708958CE00E94510708958CE00E94A0
S1130870840708958CE00E94A60708950F931F93A0
S1130880CF93DF93082F162F61E080E00E947D054F
S113089087E891E00E94640562E080E00E947D05A3
S11308A087E891E00E946405CDEC0C9FD12D1124C2
S11308B0D695D695D6958D2F0E94940361E083E05A
S11308C00E947D0587E891E00E94640562E083E070
S11308D00E947D0587E891E00E946405DD0F8D2F5D
S11308E0880F880FD80F802F8D1B0E94AA0361E008
S11308F088E00E947D0587E891E00E94640562E03B
S113090088E00E947D0587E891E00E9464051C9FB1
S1130910C12D1124C695C695C6958C2F0E94DF0360
S113092061E08BE00E947D0586E891E00E94640509
S113093062E08BE00E947D0586E891E00E946405F8
S1130940CC0F8C2F880F880FC80F812F8C1B0E940F
S11309500904DF91CF911F910F910895FF920F9396
S11309601F93CF93DF93F82E062F142F61E080E0BE
S11309700E947D058BE791E00E94640520E040E839
S11309806AEC71E081E00E94990561E082E00E94D6
S11309907D05CDECFC9ED12D1124D695D695D6950A
S11309A080E38D0F0E944A05DD0F8D2F880F880F7D
S11309B0D80F8F2D8D1B805D0E944A0561E085E074
S11309C00E947D050C9FD12D1124D695D695D695E0
S11309D080E38D0F0E944A05DD0F8D2F880F880F4D
S11309E0D80F802F8D1B805D0E944A0529E040E8C6
S11309F062EC71E082E00E94990561E08BE00E9464
S1130A007D051C9FC12D1124C695C695C69580E30E
S1130A108C0F0E944A05CC0F8C2F880F880FC80FAB
S1130A20812F8C1B805D0E944A052DE040E86AEB13
S1130A3071E083E00E94990561E08EE00E947D05EB
S1130A4087E791E00E946405DF91CF911F910F9198
S1130A50FF900895289A8AE68A95F1F700C02898AD
S1130A6008959BB19F709BB99BB1807F982B9BB9D4
S1130A700E942A050895CF93C82F29980E94310512
S1130A808C2F8295807F0E94310580EE8A95F1F744
S1130A90CF910895CF93C82F299A0E9431058C2FA6
S1130AA08295807F0E94310585EF8A95F1F70000D9
S1130AB0CF91089581E00E943B058FE39FE1019768
S1130AC0F1F700C000000895CF93DF93EC01888113
S1130AD0882331F021960E944A0589918111FBCF28
S1130AE0DF91CF91089582E00E943B058FE39FE15F
S1130AF00197F1F700C000000895613019F06230E9
S1130B0019F00895805801C080540E943B0508954F
S1130B1061E080E00E947D0589E791E00E94640520
S1130B2062E080E00E947D0589E791E00E9464050F
S1130B300895DF92EF92FF920F931F93CF93DF9369
S1130B40F82E8B01D42EE22E880F880F880F806434
S1130B500E943B05E801085F1F4F89910E944A05E6
S1130B60C017D107D1F78D2D8E0D0E943B058F2D17
S1130B700E944A05DF91CF911F910F91FF90EF9052
S1130B80DF900895CF93DF93EA010E947D05CE01A3
S1130B900E946405DF91CF9108958AB1806F8AB96C
S1130BA084B1836084B9289829988BB18F708BB9EC
S1130BB08FE59AEE0197F1F700C0000080E30E94F0
S1130BC031058FE19EE40197F1F700C000000E9417
S1130BD02A058FE99FE00197F1F700C000000E9409
S1130BE02A058FE99FE00197F1F700C0000080E239
S1130BF00E9431058FE19EE40197F1F700C00000E7
S1130C0088E20E943B058CE00E943B0586E00E943E
S1130C103B050E945A050895CF93DF93C82FD1E076
S1130C20D80F2D2F40E86AEF71E080E00E9499050B
S1130C302C2F40E862EE71E083E00E9499052D2F8D
S1130C4040EC6AEF71E080E00E94990522E02C0FED
S1130C5040EC6AEE71E082E00E9499052C2F40EC92
S1130C606AEE71E082E00E949905DF91CF910895C8
S1130C701F93CF93DF93C82F282F40E862EF71E0D2
S1130C8081E00E94990511E01C0F212F40E862EFDA
S1130C9071E081E00E949905D2E0DC0F2D2F40E83D
S1130CA06AEF71E080E00E9499052C2F40EC6AEF16
S1130CB071E080E00E949905212F40EC6AEE71E01A
S1130CC082E00E9499052D2F40EC6AEE71E082E0EB
S1130CD00E949905DF91CF911F9108951F93CF939F
S1130CE0DF93C82F282F40E862EE71E083E00E9472
S1130CF09905D1E0DC0F2D2F40E862EF71E081E02F
S1130D000E94990512E01C0F212F40EC6AEF71E05C
S1130D1080E00E949905212F40E86AEF71E080E0AD
S1130D200E9499052D2F40EC6AEE71E082E00E944A
S1130D3099052C2F40EC6AEE71E082E00E9499053F
S1130D40DF91CF911F910895CF93C82F282F40E8AA
S1130D506AEF71E080E00E94990521E02C0F40E8E1
S1130D606AEE71E082E00E949905CE5F2C2F40E884
S1130D706AEF71E080E00E9499052C2F40EC6AEF45
S1130D8071E080E00E949905CF9108951F93CF935D
S1130D90DF93C82F282F40E86AEF71E080E00E94BB
S1130DA09905D1E0DC0F2D2F40E862EF71E081E07E
S1130DB00E94990512E01C0F212F40E862EF71E0B8
S1130DC081E00E949905212F40EC6AEF71E080E0F8
S1130DD00E9499052D2F40EC6AEE71E082E00E949A
S1130DE099052C2F40EC6AEE71E082E00E9499058F
S1130DF0DF91CF911F910895CF93DF93C82F282FB0
S1130E0040E86AEF71E080E00E9499052C2F40ECE5
S1130E106AEF71E080E00E949905D1E0DC0F2D2F8C
S1130E2040E862EF71E081E00E949905CE5F2C2FCB
S1130E3040E862EF71E081E00E9499052C2F40ECBC
S1130E406AEF71E080E00E9499052D2F40EC6AEE74
S1130E5071E082E00E949905DF91CF910895CF93CC
S1130E60C82F282F40E862EE71E083E00E949905C4
S1130E7021E02C0F40E862EE71E083E00E949905C6
S1130E80CE5F2C2F40E86AEF71E080E00E94990564
S1130E902C2F40EC6AEF71E080E00E949905CF911D
S1130EA00895CF93DF93C82F282F40E86AEF71E0AD
S1130EB080E00E9499052C2F40EC6AEF71E080E0FD
S1130EC00E949905D1E0DC0F2D2F40E862EF71E01C
S1130ED081E00E949905CE5F2C2F40E86AEF71E013
S1130EE080E00E9499052C2F40EC6AEF71E080E0CD
S1130EF00E9499052D2F40EC6AEE71E082E00E9479
S1130F009905DF91CF910895CF93C82F282F40E8FA
S1130F106AEF71E080E00E94990521E02C0F40E81F
S1130F2062EF71E081E00E949905CE5F2C2F40E8CA
S1130F306AEF71E080E00E9499052C2F40EC6AEF83
S1130F4071E080E00E949905CF910895CF93DF93DB
S1130F50C82F282F40E86AEF71E080E00E949905CD
S1130F602C2F40EC6AEF71E080E00E949905D1E0FB
S1130F70DC0F2D2F40E862EE71E083E00E949905BA
S1130F80CE5F2C2F40E86AEF71E080E00E94990563
S1130F902C2F40EC6AEF71E080E00E9499052D2F20
S1130FA040EC6AEE71E082E00E949905DF91CF91F6
S1130FB0089527E040E86AED71E084E00E94990515
S1130FC027E040EC62ED71E085E00E9499052FEF87
S1130FD087E893E1215080409040E1F700C0000091
S1130FE061E087E00E947D0589E891E00E94640544
S1130FF062E087E00E947D0589E891E00E94640533
S11310002FEF87E893E1215080409040E1F700C042
S11310100000089524E040E862EB71E086E00E945D
S113102099052FEF87E893E1215080409040E1F744
S113103000C0000061E084E00E947D0589E891E041
S11310400E9464052FEF87E893E12150804090408F
S1131050E1F700C00000089521E040EC6AEA71E085
S113106080E00E94990527E040EC6AEC71E081E0A1
S11310700E9499052DE040EC62EC71E082E00E9450
S1131080990580912D02882381F162E080E00E941D
S11310907D0589E191E00E94640562E082E00E949E
S11310A07D058BE191E00E94640562E086E00E9488
S11310B07D0589E191E00E94640562E088E00E9478
S11310C07D058BE191E00E94640562E08CE00E9462
S11310D07D058BE091E00E94640562E08EE00E9451
S11310E07D058DE091E00E94640580912B028823A8
S11310F081F162E080E00E947D058BE091E00E9436
S1131100640562E082E00E947D058DE091E00E942A
S1131110640562E086E00E947D0589E191E00E9419
S1131120640562E088E00E947D058BE191E00E9405
S1131130640562E08CE00E947D0589E191E00E94F3
S1131140640562E08EE00E947D058BE191E00E94DF
S1131150640508950E94CD050E94A8090E940F030A
S11311600E94CA020E94B80008950E94AA080E9420
S1131170730578940E9455090E948609809106029D
S1131180882391F080912F02882321F080915102CD
S1131190813041F460912E0280911E020E943E042F
S11311A0109251020E94D90780912D028823B1F038
S11311B080912F02882321F080915102813061F4C3
S11311C00E942C084091090260912E0280911E0217
S11311D00E94AE04109251020E940A0880912B02D0
S11311E0882341F20E94BC0080910202813011F6F2
S11311F00E94D6020E946702BDCF9DEC899F912D6B
S1131200112496959695969520E1929FA00111241C
S1131210990F292F220F220F920F891B842B0895D7
S1131220982F92959F70990F292F220F220F920FBA
S11312308F70890F08950F931F93CF93DF9300D07E
S113124000D01F92CDB7DEB7062F142F90ED9983EF
S11312501A820E94FD088B83802F0E94FD088C83D4
S1131260812F0E94FD088D8365E0CE0101960E94C6
S1131270B3090F900F900F900F900F90DF91CF91C3
S11312801F910F910895CF93DF9300D0CDB7DEB7B0
S113129090ED99838A8362E0CE0101960E94B3099E
S11312A00F900F90DF91CF910895CF93DF93CDB737
S11312B0DEB72C970FB6F894DEBF0FBECDBF81ED1D
S11312C0898366E0CE0101960E94B30966E0CE01EF
S11312D007960E94E9098A850E94100980932F02CB
S11312E08B850E94100980932E028C850E94100920
S11312F080931E0280E00E9443092C960FB6F89456
S1131300DEBF0FBECDBFDF91CF910895CF93DF93A2
S113131000D000D000D0CDB7DEB781E10E944309F0
S113132081ED898363E0CE0101960E94B30963E0F5
S1131330CE0104960E94E9098E81809309022696C3
S11313400FB6F894DEBF0FBECDBFDF91CF910895E5
S11313508CE08093B8001092B90084E08093BC00C4
S1131360109244020895CF93DF93EC0160932C0212
S11313706093520288EF80930502643110F5ECEB20
S1131380F0E0908190FDFDCF888180930A028881EE
S1131390803D99F4623088F0FE013196ABE0B2E012
S11313A06250262F30E02E5F3F4FCE01820F931FF5
S11313B021912D93E817F907D9F785EA8093BC00AA
S11313C003C081E08093050210924402DF91CF9123
S11313D00895AC01ECEBF0E0908190FDFDCF80919D
S11313E04402882389F0662379F0A0E3B2E0FA018D
S11313F06150262F30E02F5F3F4F240F351F9D9102
S11314009193E217F307D9F78091440208951F924C
S11314100F920FB60F9211242F933F938F939F93A4
S1131420AF93BF93EF93FF93E091B9008E2F90E0B9
S1131430FC013897E135F10508F050C0E85BFF4F37
S11314400C94820A10920402E091040280915202E8
S1131450E81770F481E08E0F80930402F0E0E65FF9
S1131460FD4F80818093BB0085E88093BC003DC024
S113147081E08093440284E98093BC0036C0E0910B
S1131480040221E02E0F209304028091BB00F0E0BF
S1131490E05DFD4F808330E080912C0290E0019765
S11314A02817390724F485EC8093BC001EC085E816
S11314B08093BC001AC08091BB00E0910402F0E06C
S11314C0E05DFD4F808381E08093440284E9809352
S11314D0BC000BC085EA8093BC0007C08091B900B2
S11314E08093050284E88093BC00FF91EF91BF9143
S11314F0AF919F918F913F912F910F900FBE0F90BD
S11315001F901895EE0FFF1F0590F491E02D09949C
S1071510F894FFCF79
S1131514436F6E6E656374696E67003E003C0043FE
S11315246F6E6E6563746564005B005D00486F757F
S1131534723A0057686974652062746E20746F206F
S11315447365743A0030302D3233004D696E733A4A
S113155420200030302D35390053656C6563743AAE
S113156400313A536574207468652074696D6500AC
S1131574323A457869742020202020202020004E0F
S11315846F20646174610043002020202020202007
S113159420202020202020202020004C6F6164691A
S11315A46E672E2E2E002500202020203130302579
S11315B420202020202020202000040605160E15BB
S11315C406040000040400040400081408000000D5
S11315D40000040A0A0E0E1F1F0E000E1515171123
S11315E40E00000E0E000000000000000000000EBB
S11315F40E001F1F00000000000000000000000097
S11316041F1F1F1F000000001F1F1F1F1F1F1F1F5E
S10516141F1F92
S9030000FC
